:020000040800F2
:10000000B011002099010008730D00080B0D0008C5
:10001000710D000805020008090F0008000000002B
:1000200000000000000000000000000001010008C6
:10003000070200080000000045010008DD0D00086F
:10004000B3010008B3010008B3010008B3010008C0
:10005000B3010008B3010008B3010008B3010008B0
:10006000B3010008B3010008B3010008B3010008A0
:10007000B3010008B3010008B3010008B301000890
:10008000B3010008B3010008B3010008B301000880
:10009000B3010008B3010008B3010008B301000870
:1000A000B3010008B3010008B3010008B301000860
:1000B000B3010008B3010008910E0008B301000865
:1000C000B3010008B3010008B3010008B301000840
:1000D000B3010008B3010008B3010008B301000830
:1000E000B3010008B3010008B3010008DFF80CD029
:1000F00000F076F800480047290F0008B0110020F2
:10010000224B19680868B0E8F00F80F30988BFF344
:100110006F8F4FF0000080F311884EF00D0E704786
:100120000000000006480068006880F3088862B696
:1001300061B6BFF34F8FBFF36F8F00DF00BF00BF0B
:1001400008ED00E0EFF30980BFF36F8F0F4B1A68E3
:1001500020E9F00F106008B54FF0500080F31188CF
:10016000BFF34F8FBFF36F8F01F076FA4FF00000AF
:1001700080F31188BDE8084019680868B0E8F00FFE
:1001800080F30988BFF36F8F704700BF40000020E5
:10019000EFF3058070470000064880470648004797
:1001A000FEE7FEE7FEE7FEE7FEE7FEE7FEE7FEE727
:1001B000FEE7FEE7490E0008ED00000840EA0103F3
:1001C0009B0703D009E008C9121F08C0042AFAD20D
:1001D00003E011F8013B00F8013B521EF9D27047D1
:1001E000064C074D06E0E06840F0010394E8070084
:1001F00098471034AC42F6D3FFF77CFFCC190008C7
:10020000EC190008FEE7704770B5044600F0FAF8F4
:100210000546601C02D004480078044400F0F2F85F
:10022000401BA042FAD370BD0C0000202DE9F84F0E
:10023000DFF890A100220AF1040B144601274FF0C9
:100240000F090BF1040E00BF0B6807FA04F52B40F1
:10025000AB4274D1DFF870C14E68A6EB0C0866455E
:100260002BD00DDC032E34D005DC36B3012E19D093
:10027000022E2FD11BE0112E16D0122E2AD119E0FA
:10028000B8F5881F19D006DCB8F5803F15D0B8F551
:10029000801F1FD111E0B8F5001F0ED0B8F5041F64
:1002A00018D10AE0CA6815E0CA68121D12E0CA68CF
:1002B00008320FE0CA680C320CE08A682AB1012AC1
:1002C0004FF0080203D0456104E0042202E005611A
:1002D00000E00022FF2B01D8064601E000F10406F1
:1002E0004FEA840501D9A5F12005D6F800C009FA26
:1002F00005F82CEA080C02FA05F54CEA050CC6F8DC
:1003000000C04D68ED0057D5304DAE6946F001068E
:10031000AE61AD6924F0030605F0010500952C4D92
:1003200006EB050CDCF80850A6074FEA167809FA28
:1003300008F6B543274EB04202D1002610E03BE05C
:10034000254EB04201D101260AE0244EB04201D12F
:10035000022605E0224EB04201D1032600E0042629
:1003600006FA08F62E43CCF808604D68DAF800600B
:10037000ED03554601D51E4300E09E432E604D68B7
:10038000DBF80060AD035D4601D51E4300E09E43EF
:100390002E604D68DEF80060ED02754601D51E4303
:1003A00000E09E432E604D68AD020E4D2E6801D5D3
:1003B0001E4300E09E432E60641C102CFFF444AFEB
:1003C000BDE8F88F00040140000011100010024049
:1003D0000000014000080140000C014000100140F5
:1003E000001401400C0401408068084000D0012046
:1003F0007047C2684A40C26070470AB101617047E5
:100400000904FBE701488068704700000C000020E9
:100410000248816802781144816070470C00002016
:10042000074810B5016841F010010160032000F099
:10043000B7F8002000F006F800F03EF8002010BDEC
:100440000020024000B5014687B000221E2000F0C7
:1004500087F81E2000F078F81348C16941F00401C4
:10046000C161C06905A900F004000690684600F06B
:1004700053F900F077F90D494000B0FBF1F10D4858
:100480000B4A491E0260416040F2E7320021C0E998
:100490000321816000F050FB10B1012007B000BDC6
:1004A000044800F065FBF9E70010024040420F00ED
:1004B000000800407C000020214808B5816941F017
:1004C00001018161816901F001010091C16941F07F
:1004D0008051C161C06900F080500090032000F09D
:1004E0005FF8002211466FF00B0000F039F800228F
:1004F00011466FF00A0000F033F8002211466FF049
:10050000090000F02DF800221146501F00F028F8D5
:1005100000221146101F00F023F800220F21901E28
:1005200000F01EF800220F21501E00F019F80548B7
:10053000416821F0E06141F00071416008BD0000B8
:10054000001002400000014000F01F020121914014
:100550004009800000F1E020C0F800117047000061
:10056000F0B40E4B1B680C46C3F30223C3F107051E
:10057000042D00D90425191D072901D2002300E00C
:10058000DB1E012606FA05F1491E214099409E40D6
:10059000761E16403143F0BC00F0ECBB0CED00E0E1
:1005A000064900F0070208684FF6FF03184040EACA
:1005B0000220034A10430860704700000CED00E081
:1005C0000000FA052DE9F047DFF83C8105460E46AC
:1005D000D8F8000000F00700B0420CD2D8F80010A4
:1005E00021F007013143C8F80010D8F8000000F0EE
:1005F0000700B04263D12878444C800705D5606875
:10060000A96820F0F000084360602878C00745D052
:100610006868012816D02168022816D089070029A9
:100620004DDA616821F0030101436160FFF7EAFEE2
:100630006968074641F2883001290FD002298146B6
:1006400019D027E021688903E9E78901E7E700BFBE
:10065000FFF7D8FEC11B494501D918E08146606803
:10066000C0F381000128F3D118E000BFFFF7CAFEF4
:10067000C11B49450BD86068C0F381000228F5D141
:100680000CE000BFFFF7BEFEC11B494502D90320A5
:10069000BDE8F087606810F00C0FF3D1D8F80010B7
:1006A000404601F00701B1420BD9016821F0070172
:1006B00031430160006800F00700B04201D0012022
:1006C000E6E72878400705D56068E96820F4E0602F
:1006D000084360602878000706D56068296920F41F
:1006E000605040EAC100606000F04CF86168084A60
:1006F000C1F30311515CC840064908600020FFF7B0
:10070000A1FE0020C4E700000020024000100240CB
:1007100090190008180000200F2202600C4A53684C
:1007200003F003034360536803F0F00383605368EE
:1007300003F4E063C36052684FF4E06303EAD2025B
:1007400002610448006800F007000860704700007C
:10075000001002400020024001480068704700007D
:10076000180000200448054900684968044AC1F39C
:100770000221515CC8407047180000200010024060
:10078000A019000812A185B00FC98DE80F0014A0B0
:10079000144A006804905168134801F00C03042BBC
:1007A00010D0082B0ED1C1F38343C9031DF80300F9
:1007B0000AD5516804AAC1F34041515C0A4A50432A
:1007C000B0FBF1F005B0704708494843FAE7000074
:1007D00002030405060708090A0B0C0D0E0F101082
:1007E000010200000010024000127A0000093D00E2
:1007F0002DE9F84F04460078B94DC00748D0686825
:10080000C0F38100012807D06868C0F38100022886
:1008100009D16868C00306D52868800338D56068A8
:1008200000286FD034E06068B0F5803F0BD010B185
:10083000B0F5A02F11D0286820F4803028602868F7
:1008400020F4802002E0286840F48030286060684E
:1008500088B1FFF7D7FD064609E0286840F48020FC
:100860002860F0E7FFF7CEFD801B642875D8286864
:100870008003F7D50CE0FFF7C5FD064605E000BF95
:10088000FFF7C0FD801B6428F0D828688003F7D4E8
:100890002078944E80074FF001094FF000083BD5B7
:1008A000686810F00C0F07D06868C0F38100022858
:1008B00009D16868C00306D42868800714D5206968
:1008C00001281FD110E02069B0B1C6F80090FFF7F1
:1008D00099FD074605E000BFFFF794FDC01B022805
:1008E000C4D828688007F7D52868616920F0F80027
:1008F00040EAC10028600FE0C6F80080FFF782FDE3
:10090000074606E0E9E000BFFFF77CFDC01B0228B8
:1009100023D828688007F7D4207800072CD57248A0
:10092000A169D9B1C0F80090FFF76CFD074604E05B
:10093000FFF768FDC01B02280FD8686A8007F7D54B
:100940006A484FF4FA510068B0FBF1F0009000BF24
:100950000098411E0091FAD20EE080E0C0F80080BD
:10096000FFF750FD074604E0FFF74CFDC01B0228CF
:1009700075D8686A8007F7D42078400760D5E869A1
:100980000027C00008D4E86940F08050E861E869B9
:10099000012700F08050009055480168C90513D424
:1009A0000168834641F480710160FFF72BFD8246A8
:1009B00006E000BFFFF726FDA0EB0A0064284ED832
:1009C000DBF80000C005F5D5E06801280AD008B1C1
:1009D000052813D0286A20F001002862286A20F038
:1009E000040002E0286A40F001002862E06841F259
:1009F000883B98B1FFF706FD82460BE0286A40F07D
:100A000004002862EEE700BFFFF7FCFCA0EB0A0140
:100A100059455AD8286A8007F6D50CE0FFF7F2FC52
:100A2000824605E0FFF7EEFCA0EB0A0159454CD8E1
:100A3000286A8007F6D41FB1E86920F08050E86189
:100A4000E06988B36968C1F38101022945D00228B1
:100A5000C6F8608004D0FFF7D5FC044638E034E0E7
:100A6000FFF7D0FC074604E0FFF7CCFCC01B0228D0
:100A70002BD828688001F7D4206AB0F5803F05D1D3
:100A80006868A16820F4003008436860D4E9080170
:100A90000843696821F4741108436860C6F86090DF
:100AA000FFF7B0FC044606E015E000BFFFF7AAFC24
:100AB000001B022809D828688001F7D50BE000BF89
:100AC000FFF7A0FC001B022802D90320BDE8F88F25
:100AD00028688001F4D40020F8E70120F6E7000040
:100AE00000100240000042428004424218000020F0
:100AF000007000404FF0E0210428086903D020F086
:100B000004000861704740F00400FAE710B5401E89
:100B1000B0F1807F01D3012010BD4FF0E02460616F
:100B20000F21601700F026F90020A0610720206146
:100B3000002010BD7047704710B5040003D094F832
:100B40003D0010B107E0012010BD002084F83C00FA
:100B5000204600F00CF8022084F83D00211D20689A
:100B600000F09CF9012084F83D00002010BD704782
:100B70000168CA6842F00102CA600068016841F079
:100B80000101016000207047704770B5044600689D
:100B900001694FF00005C943890715D4C168C943ED
:100BA000890711D4E91E016101202077206880693E
:100BB0008007204602D0FFF7E7FF04E000F098F836
:100BC000204600F096F8257720680169C943490757
:100BD00017D4C168C943490713D46FF004010161F8
:100BE000022020772068806910F4407F204602D0E0
:100BF000FFF7CAFF04E000F07BF8204600F079F828
:100C0000257720680169C943090716D4C168C9431B
:100C1000090712D46FF008010161042020772068D1
:100C2000C0698007204602D0FFF7AEFF04E000F065
:100C30005FF8204600F05DF8257720680169C94318
:100C4000C90617D4C168C943C90613D46FF010018F
:100C50000161082020772068C06910F4407F204699
:100C600002D0FFF791FF04E000F042F8204600F0C8
:100C700040F8257720680169C943C90708D1C168D0
:100C8000C943C90704D1891E0161204600F032F82A
:100C900020680169C943090609D4C168C943090626
:100CA00005D46FF0800101612046FFF743FF206803
:100CB0000169C943490609D4C168C943490605D435
:100CC0006FF040010161204600F01EF820680169C4
:100CD000C94389060BD4C168C943890607D46FF09C
:100CE000200101612046BDE87040FFF724BF70BDC0
:100CF0007047704700680349884201D1FFF788BBFD
:100D000070470000000800407047FEE770B51648C5
:100D100086B0816941F020018161816901F0200183
:100D20000491816941F00401816180690F4E00F0F6
:100D300004000490002206213046FFF75EFB0620E7
:100D4000012400258DE831000320039069463046D8
:100D5000FFF76CFA0820CDE9000569460294304699
:100D6000FFF764FA06B070BD0010024000080140B1
:100D7000FEE770470907090E002806DA00F00F00A9
:100D800000F1E02080F8141D704700F1E02080F8A9
:100D900000147047012000F0FDF8FBE7064C4FF40B
:100DA0007A7502212046FFF724FB2846FFF72CFA2C
:100DB000012000F0EFF8F4E700080140064C08219C
:100DC0002046FFF711FB18B904212046FFF711FB5D
:100DD000012000F0DFF8F2E70008014000F0E6B87B
:100DE00030B58FB001210804CDE900100024029431
:100DF00002250491CDE907504FF4E01009906846B0
:100E0000FFF7F6FC00B1FEE70F20CDE90A054FF42D
:100E10008060CDE90C4002210AA80E94FFF7D2FBB6
:100E200000B1FEE7FFF798FC4FF47A71B0FBF1F0E8
:100E3000FFF76CFE0420FFF75DFE00220F21501E1D
:100E4000FFF78EFB0FB030BD0D48016841F0010186
:100E5000016041680B4A1140416001680A4A114033
:100E60000160016821F480210160416821F4FE01E4
:100E700041604FF41F0181600449C003086070475E
:100E8000001002400000FFF8FFFFF6FE08ED00E052
:100E90000148FFF77ABE00007C000020F0B5026830
:100EA000164B174C174D4FF08047984205D0B8426B
:100EB00003D0A04201D0A84203D122F070064A68B4
:100EC0003243984205D0B84203D0A04201D0A84294
:100ED00003D122F44074CA68224322F080044A6994
:100EE000224302608A68C2620A688262984201D123
:100EF0000969016301214161F0BD0000002C01403E
:100F00000004004000080040FEE702E008C8121F8D
:100F100008C1002AFAD170477047002001E001C1E2
:100F2000121F002AFBD1704790B0FFF779FAFFF744
:100F300057FFFFF7EBFE142211496846FFF73EF911
:100F40000021684600F03CF80E4C0D491422206048
:100F5000143105A8FFF732F9002105A800F030F898
:100F600007496060142228310AA8FFF727F90021F9
:100F70000AA800F025F8A06000F013F8FEE70000D2
:100F8000541900080000002001460020842900D0E8
:100F9000C81C704710B500B9012000F0FBFA002012
:100FA00010BD10B500F01CFB002010BD10B500F006
:100FB000FDFB012803D0BDE8104000F0B5BB10BD1B
:100FC0003EB504460D46B0F90800FFF7DDFF02A963
:100FD000CDE90001208A2B4682B2D4E9001000F04E
:100FE000B9FB012801D000203EBD02983EBD0000A3
:100FF0002DE9F041184C0F460546E6682068001DB3
:1010000000F012FA38B9206890F82C1001208840BE
:10101000216981432161681C07D137B12168BDE88E
:10102000F0410E48091D00F037BA20683544B5423A
:101030004560216805D2A06BBDE8F041091D00F0B4
:1010400013BA606B091D00F00FFAA06A854200D246
:10105000A562BDE8F081000040000020980D00204E
:101060002DE9F041054600F023FA2E4CA068401C03
:10107000A06020682C4F10B1606940B32DE025605E
:10108000A068012829D1002606EB860007EB800026
:1010900000F0DCF9761C072EF6D323488C3000F0E4
:1010A000D5F92148A03000F0D1F91F48B43000F044
:1010B000CDF91D48C83000F0C9F91B48DC3000F0FC
:1010C000C5F919488C3060631430A06305E02068CE
:1010D000E96AC06A884200D82560606A401C606284
:1010E000E96A0120226988401043206101EB8100F8
:1010F00007EB8000291D00F0CFF900F0F9F96069D5
:1011000000280CD02068E96AC06A884207D20749E3
:101110004FF080500860BFF34F8FBFF36F8FBDE873
:10112000F081000040000020BC0C002004ED00E035
:1011300070B5114E114C17E000F086FA3068B8B166
:1011400000F0A6FB00F0B4F9F068C568281D00F0B7
:101150006BF9A068401EA0606068401E606000F0EF
:10116000C7F9284600F00CF860680028E4D170BD8B
:1011700000F08EFBF8E70000840D00204000002006
:1011800010B50446006B00F0C7F92046BDE81040DA
:1011900000F0C2B910484FF44061420706D0C01DAC
:1011A0000D4920F00700411AC1F540610B4A0023A8
:1011B0000144C2E900030839103A21F00701116027
:1011C0004B600B600B1AC0E9001393604FF00040B6
:1011D0005360D06070470000BC0000202C0000204D
:1011E000074C4FF08056074DFFF7A2FF20680128FB
:1011F000FAD92E60BFF34F8FBFF36F8FF4E7000073
:10120000BC0C002004ED00E02DE9F0479A46DDE932
:10121000098481466FF00303206B03EB82021044C4
:10122000089D20F00706700707D0502080F3118832
:10123000BFF34F8FBFF36F8FFEE723180A5C83F86D
:1012400034200A5C12B1401C1028F6D3002784F821
:101250004370072D00D30625E562C4E91157201D10
:1012600000F0FFF804F1180000F0FBF82461C5F16C
:1012700007006462A061E76484F8507052464946F2
:10128000304600F0BFF82060B8F1000F01D0C8F878
:101290000040BDE8F087000030B5114900E011467C
:1012A0000A688242FBD34B685C18844203D14068D1
:1012B00018444860084643681C18944209D1084CF9
:1012C000103C2468A24209D052681A4442600A685D
:1012D00012680260814200D0086030BD0460F9E706
:1012E0002C0000200648416B096829B1416BC96890
:1012F000C9684968816270474FF0FF31FAE7000022
:101300004000002008484068401C4FF0500080F327
:10131000118804D0BFF34F8FBFF36F8FFEE7BFF389
:101320004F8FBFF36F8FFEE7340000202DE9F041AF
:101330000546002700F088F9314E306808B9FFF7FC
:1013400029FFF06805424BD1C5B3083568070ED0B8
:1013500005F00700C0F108000544680707D05020D9
:1013600080F31188BFF34F8FBFF36F8FFEE72DB36C
:101370007068854234D82248103001460C6801E07C
:1013800020460C466168A94202D221680029F7D1A3
:1013900031688C4224D00768216801606068083792
:1013A000411B10290FD96019420708D0502080F343
:1013B0001188BFF34F8FBFF36F8FFEE710E04160DE
:1013C0006560FFF769FF61687068401A7060B26815
:1013D000904200D2B060F06801430020C4E90001EF
:1013E00000F056FA780707D0502080F31188BFF339
:1013F0004F8FBFF36F8FFEE73846BDE8F0810000E6
:101400001C00002010B5031F4FF080741C601B1FD0
:1014100021F001011960191F024B0B60143940388B
:101420000A6010BD05130008D0E9013201699A6015
:10143000D0E901235A604A68824201D182684A6039
:10144000002202610868401E0860704700F1080130
:101450004FF0FF32C0E90112C1600161002101605B
:10146000704700210161704730B50B685A1C02D0EB
:1014700000F1080202E0026904E02246546825688F
:101480009D42FAD953684B6099608A605160086147
:101490000168491C016030BD42684A6093688B60F6
:1014A00093685960916008610168491C0160704748
:1014B000502080F31188BFF34F8FBFF36F8F0A491D
:1014C0004868401C486001280CD10848006810F0AA
:1014D000FF0F07D0502080F31188BFF34F8FBFF369
:1014E0006F8FFEE7704700003400002004ED00E03D
:1014F0000849486828B1401E486001D180F311882E
:101500007047502080F31188BFF34F8FBFF36F8F68
:10151000FEE700003400002070B5002827D0144DED
:10152000A0F108046168E868014207D1502080F307
:101530001188BFF34F8FBFF36F8FFEE722683AB178
:10154000502080F31188BFF34F8FBFF36F8FFEE7FA
:101550008143616000F078F86068696808446860F9
:101560002046FFF799FEBDE8704000F091B970BDCC
:101570001C00002006484FF47A710068B0FBF1F1BE
:101580004FF0E020491E41610721016170470000D2
:101590001800002010B5020014D00F48006B38B1BD
:1015A000502080F31188BFF34F8FBFF36F8FFEE79A
:1015B00000F04AF800211046FFF71AFD00F068F924
:1015C000002807D105494FF080500860BFF34F8FC6
:1015D000BFF36F8F10BD00004000002004ED00E05D
:1015E0001CB515480024CDE900402346802213A1F4
:1015F000144800F0AFF8012809D0401C1AD150203F
:1016000080F31188BFF34F8FBFF36F8FFEE7502039
:1016100080F31188BFF34F8FBFF36F8F06484FF0F1
:10162000FF312C38816201214161C460BDE81C405A
:1016300000F040B81CBD00006C00002049444C453F
:1016400000000000E11100080248016B491C016321
:1016500070470000400000201448016B11B10121C7
:10166000C16170470021C1610169B1FA81F1C1F125
:101670001F0101EB81020E4951F822306BB101EBE1
:10168000820101F108034A6852684A609A4201D116
:1016900052684A60D16801607047502080F3118819
:1016A000BFF34F8FBFF36F8FFEE7000040000020B5
:1016B000BC0C00201CB5194908780190FF20087067
:1016C00008788DF800009DF80000154A00F05000E1
:1016D00010700720906005E09DF800305B008DF8E9
:1016E0000030401E9DF800301B06F5D4000200F4C7
:1016F000E0609060019808700A48016841F4700148
:101700000160016841F070410160FFF733FF002084
:101710005060FEF707FD00201CBD000000E400E063
:101720003400002020ED00E010B5502080F3118837
:10173000BFF34F8FBFF36F8F00F046F818B1044925
:101740004FF080500860002080F3118810BD000029
:1017500004ED00E02DE9FF5F8346DDE90E87994641
:1017600016468A469000FFF7E1FD05001AD0542086
:10177000FFF7DCFD040012D025630021CDE9024112
:10178000CDE900874B46324651465846FFF73CFDAF
:101790002046FFF765FC012004B0BDE8F09F284615
:1017A000FFF7BAFE4FF0FF30F6E700000548416949
:1017B00019B1006B18B1002070470120704702205A
:1017C00070470000400000202DE9F0412E4C00271A
:1017D000206B40B1A069401CA061E06900B1012705
:1017E0003846BDE8F081E668761CE66013D1606B90
:1017F000006838B1502080F31188BFF34F8FBFF3DA
:101800006F8FFEE7606BA16B6163A063206A401C71
:101810002062FFF767FDA06ADFF87080864209D377
:10182000606B006880B1606BC068C568686886429C
:101830000DD2A0622068C06A00EB800158F8210038
:101840000128CAD90127C8E74FF0FF30F1E7281D6A
:10185000FFF7EAFDA86A18B105F11800FFF7E4FDEB
:10186000E86A0121226981401143216100EB800176
:1018700008EB8100291DFFF70FFEE86A2168C96A9D
:101880008842CDD30127CBE740000020BC0C0020CC
:101890002DE9F0472C4D00242746286B38B1FFF77F
:1018A00007FE286B401E2863286B40B146E050209D
:1018B00080F31188BFF34F8FBFF36F8FFEE7A968E6
:1018C000224E0120D1B3A6F1B40980463068E8B1B8
:1018D000F068C46804F11800FFF7A6FD201DFFF7AB
:1018E000A3FDE06A2A6908FA00F11143296100EBBF
:1018F000800109EB8100211DFFF7CEFDE06A296818
:10190000C96A8842E2D3C5F81C80DFE70CB1FFF753
:10191000E9FCAC6944B14646FFF756FF00B1EE6101
:10192000641EF9D10020A861E86938B1084901278F
:1019300038070860BFF34F8FBFF36F8FFFF7D8FDF5
:101940003846BDE8F087000040000020700D002000
:1019500004ED00E0C0190008950D0008000000002B
:101960000000000080000000A81900089D0D00087C
:10197000FDFF00000000000080000000B419000816
:10198000BD0D0008FDFF0000000000008000000009
:10199000000000000000000001020304060708091F
:1019A00000000000010203046D795461736B303252
:1019B000000000006D795461736B3033000000004B
:1019C00064656661756C745461736B00EC19000892
:1019D000000000207C0000000A0F0008681A0008C0
:1019E0007C000020341100001A0F000800000000E5
:1019F00000000000000000000100000010000000D6
:101A00000000000000A24A040000000000000000E6
:101A100000000000000000000000000000000000C6
:101A200000000000AAAAAAAA00000000000000000E
:101A300000000000000000000000000000000000A6
:101A40000000000000000000000000000000000096
:101A50000000000000000000000000000000000086
:081A600000000000000000007E
:04000005080000ED02
:00000001FF
